:1000000000000320FD480000C94800007D480000B2
:100010007D4800007D4800007D4800007D480000CC
:100020007D4800007D4800007D480000C948000070
:10003000C94800007D480000094C0000814C0000C8
:10004000C9400000C9480000C9480000C948000074
:10005000C9480000C9480000C9480000C94800005C
:10006000C9480000C9480000C9480000C94800004C
:10007000C9480000C9480000C9480000C94800003C
:10008000C9480000C9480000C9480000C94800002C
:10009000C9480000C9480000C9480000C94800001C
:1000A000C9480000C9480000C9480000C94800000C
:1000B000C9480000C9480000C9480000C9480000FC
:1000C000C9480000C9480000C9480000C9480000EC
:1000D000C9480000C9480000C94800006D4100003F
:1000E000C9480000C9480000C9480000C9480000CC
:1000F000C9480000C9480000C9480000C9480000BC
:10010000C9480000C9480000C9480000C9480000AB
:10011000C94800006D5D0000C9480000C9480000E2
:1001200021410000C9480000C9480000C94800003A
:10013000C9480000C9480000C9480000C94800007B
:10014000C9480000C9480000C9480000C94800006B
:10015000C9480000C9480000C9480000C94800005B
:10016000C9480000C9480000C9480000C94800004B
:10040000FFFFFFFFFFFFFFFFFFFFFFFFDEF9FFFF23
:100410000548064B1B1AD90F01EBA301491002D066
:10042000034B03B118477047B408FF1FB408FF1F00
:100430000000000008B5054B1BB105490548AFF3A6
:100440000080BDE80840FFF7E3BF00BF00000000E8
:10045000B408FF1F100D010080B582B000AF87ED1A
:10046000010A97ED010A0BF0B9F9F0EE407AB0EE0F
:10047000670A0837BD4680BD80B582B000AF87ED02
:10048000010A97ED010A0BF083FAF0EE407AB0EE24
:10049000670A0837BD4680BD80B582B000AF87EDE2
:1004A000010A97ED010A0BF0B3FAF0EE407AB0EED4
:1004B000670A0837BD4680BD80B582B000AF87EDC2
:1004C000010A97ED010A0BF0DDFAF0EE407AB0EE8A
:1004D000670A0837BD4680BD80B483B000AF78603E
:1004E0007B689B6818460C37BD465DF8047B7047F7
:1004F00080B582B000AF786039603968786806F0FE
:1005000067FA034618460837BD4680BD80B582B0FD
:1005100000AF786039603968786806F040FA0346C1
:10052000002B0CBF01230023DBB218460837BD4661
:1005300080BD80B582B000AF786039603968786876
:1005400006F046FA0346002B0CBF01230023DBB262
:1005500018460837BD4680BD80B483B000AF7860D0
:100560007B681B6818460C37BD465DF8047B7047F6
:1005700090B583B000AF786039607B681B68043346
:100580001C6838680EF03AF803461A4639687868ED
:10059000A047034618460C37BD4690BD80B582B0D3
:1005A00000AF78600B46FB707B681B681B68FA78AD
:1005B000114678689847034618460837BD4680BDFF
:1005C00080B582B000AF7860396039687868FFF72D
:1005D000CFFF034618460837BD4680BD80B582B0C0
:1005E00000AF786039603968786804F050FD0346E0
:1005F00018460837BD4680BD80B582B000AF786030
:10060000396000230A223968786804F06FFD0346D8
:1006100018460837BD4680BD80B582B000AF78600F
:10062000396000230A223968786804F05FFD0346C8
:1006300018460837BD4680BD80B584B000AFF8606D
:1006400087ED000BB960BB68DBB2194697ED000B74
:10065000F86804F0C5FD034618461037BD4680BD56
:1006600090B583B000AF7860396039687868FFF77B
:10067000A7FF0446786804F024FD03462344184687
:100680000C37BD4690BD80B483B000AF7860396050
:1006900000BF0C37BD465DF8047B704780B582B063
:1006A00000AF786005F0DAFD034618460837BD460E
:1006B00080BD80B582B000AF786005F045FF00BF17
:1006C0000837BD4680BD80B582B000AF786005F0C8
:1006D00021FE00BF0837BD4680BDFFFF80B483B058
:1006E00000AF78600D4B1B78DBB2002B0FD00C4BAA
:1006F0001B78DBB203F00103002B08D0094B1A680A
:10070000094B1B68D31A0E2B01D9012300E00023EB
:1007100018460C37BD465DF8047B7047E913FF1F90
:100720000014FF1F0813FF1FFC13FF1F80B483B0CA
:1007300000AF0346FB7197F90730002B0BDBFB7909
:1007400003F01F02074997F907305B09012000FAFF
:1007500002F241F8232000BF0C37BD465DF8047B50
:10076000704700BF00E100E080B483B000AF0346F3
:100770003960FB7197F90730002B0ADB3B68DAB26E
:100780000C4997F907301201D2B20B4483F80023C9
:100790000AE03B68DAB20849FB7903F00F03043B37
:1007A0001201D2B20B441A7600BF0C37BD465DF879
:1007B000047B704700E100E000ED00E080B584B00C
:1007C00000AF0346FB710023FB6097F9073013F17C
:1007D000800F02D10123FB6004E097F9073018462F
:1007E000FFF7A4FFFB6818461037BD4680BD80B4F4
:1007F00085B000AF78607B681B0C03F1804303F584
:100800008E23FB60FB6819687B689BB201229A40CB
:10081000FB680A431A6000BF1437BD465DF8047BCD
:100820007047FFFF80B400AF054B03F580531A46B5
:10083000044B536400BFBD465DF8047B704700BFA6
:10084000007004400000260280B483B000AF7860DE
:10085000044A7B68136000BF0C37BD465DF8047B1B
:10086000704700BF3414FF1F80B483B000AF7860BE
:10087000044A7B68136000BF0C37BD465DF8047BFB
:10088000704700BF3814FF1F80B487B000AFF86016
:10089000B9601346FB7101237B61FB79002B05D105
:1008A0007A69BB689A40FB689A6004E07A69BB6821
:1008B0009A40FB685A6000BF1C37BD465DF8047B58
:1008C000704780B483B000AF786039607B683A6865
:1008D000DA6000BF0C37BD465DF8047B704780B41A
:1008E00085B000AFF860B9601346FB71FB68BA6869
:1008F00053F8223023F4E062FB791B0203F4E06337
:1009000042EA0301FB68BA6843F8221000BF1437BB
:10091000BD465DF8047B704780B483B000AF78605B
:100920000B46FB707B68FA781A7000BF0C37BD4627
:100930005DF8047B704780B483B000AF78600B46ED
:10094000FB70FB78002B06D07B681B6A43F0040227
:100950007B681A6205E07B681B6A23F004027B68EF
:100960001A6200BF0C37BD465DF8047B704780B447
:1009700083B000AF78600B46FB70FB78002B06D08D
:100980007B681B6A43F040027B681A6205E07B6863
:100990001B6A23F040027B681A6200BF0C37BD4619
:1009A0005DF8047B7047FFFF80B582B000AF7860D0
:1009B00039603B681F2B05D90B4B0C4A4D210C4865
:1009C00006F00CFC7A683B6813441B78DBB263F0DA
:1009D0007F03D9B27A683B6813440A461A7000BF95
:1009E0000837BD4680BD00BF24EC00005CEC000071
:1009F00090EC000080B584B000AFF860B9607A6018
:100A0000BB681F2B05D90F4B0F4A6F210F4806F00B
:100A1000E5FBFA68BB6813441B78DBB223F03F03A5
:100A2000DAB27B68DBB203F03F03DBB21343D9B227
:100A3000FA68BB6813440A461A7000BF1037BD46F7
:100A400080BD00BF24EC0000ECEC000090EC000046
:100A500080B584B000AFF860B9601346FB71BB6825
:100A60001F2B06D9114B124A4FF4F571114806F0AD
:100A7000B5FBFB685A6C0121BB6801FA03F3DB4349
:100A80001A40FB685A64FB685A6CFB79012B01D150
:100A9000012100E00021BB6801FA03F31A43FB685F
:100AA0005A6400BF1037BD4680BD00BF24EC000073
:100AB00024ED00005CED000080B483B000AF7860EE
:100AC0007B681B6843F480327B681A6000BF0C3778
:100AD000BD465DF8047B704780B483B000AF78609A
:100AE0007B681B6843F001027B681A6000BF0C370B
:100AF000BD465DF8047B704780B483B000AF78607A
:100B000039603B689AB27B685A6000BF0C37BD46BB
:100B10005DF8047B704780B483B000AF78603960C3
:100B20003B689AB27B68DA6000BF0C37BD465DF85F
:100B3000047B704780B584B000AFF8600B467A60E4
:100B4000FB72FB7A012B06D9094B0A4A40F231218C
:100B5000094806F043FBFB7A7A6892B2F9682A33B7
:100B6000DB000B445A6000BF1037BD4680BD00BF9C
:100B7000B4ED0000FCED000050EE000080B483B046
:100B800000AF78600B46FB70FB78002B0AD07B68C7
:100B900093F82130DBB263F07F03DAB27B6883F82D
:100BA000212009E07B6893F82130DBB203F07F035A
:100BB000DAB27B6883F8212000BF0C37BD465DF8B0
:100BC000047B704780B483B000AF78600B46FB7045
:100BD000FB78002B0AD07B6893F82230DBB243F01D
:100BE0000103DAB27B6883F8222009E07B6893F87E
:100BF0002230DBB223F00103DAB27B6883F82220D3
:100C000000BF0C37BD465DF8047B704780B500AF70
:100C10001748FFF7ECFD1748FFF7E9FD1648FFF707
:100C2000E6FD1648FFF7E3FD1548FFF7E0FD01225A
:100C300005211448FFF753FE134A0521134806F017
:100C400093FA012210211248FFF749FE114A1021A0
:100C5000114806F089FA012211210D48FFF73FFEE5
:100C60000E4A11210C4806F07FFA00BF80BD00BF7C
:100C7000090038100A0038100B0038100C0038102A
:100C80000D00381000B00440E4F4000080F00F4084
:100C900000A00440E8F4000040F00F40ECF4000035
:100CA00080B400AF334B1A68334B1B68B2FBF3F3CD
:100CB000324A1360324BD3ED006A2F4B1B6807EEAC
:100CC000903AB8EE677AC6EE877A2E4BC3ED007A7B
:100CD0002C4BD3ED007AF7EE006A86EEA77ADFEDB3
:100CE0002A6AC7EE267A294BC3ED007A224B1B688D
:100CF000274A126802FB03F3264A1360254B1A6841
:100D0000254B1B681344254A1360254B1B78012B88
:100D100001D11E2200E01022224B1A80224B1A68B9
:100D2000164B1B68B2FBF3F39AB2204B1A801F4B91
:100D30001A881C4B1B88B2FBF3F39AB21C4B1A8027
:100D40001B4B1A88174B1B8812FB03F39AB2194BE3
:100D50001A80194B1B685A08184B1B689A4204D218
:100D6000154B1B685B08154A136000BFBD465DF854
:100D7000047B70476007FF1F5007FF1FCC0AFF1F4F
:100D80006407FF1FD00AFF1F00247449D40AFF1F05
:100D90004C07FF1FD80AFF1F5407FF1FDC0AFF1F65
:100DA0003107FF1FE00AFF1F5C07FF1FE20AFF1F5A
:100DB000E40AFF1FE60AFF1F3807FF1F3C07FF1F5B
:100DC00080B483B000AF0346FB71FB79052B0FD8CD
:100DD00001A252F823F000BFF50D0000F90D00004C
:100DE000FD0D0000010E0000050E0000090E0000C0
:100DF000094B0AE0094B08E0094B06E0094B04E007
:100E0000094B02E0094B00E0094B18460C37BD4680
:100E10005DF8047B704700BFA8EE0000B0EE000054
:100E2000B4EE0000D0EE0000E4EE000000EF0000A1
:100E300024EF000080B483B000AF0346FB71FB7960
:100E4000002B03D0012B03D0054B02E0054B00E043
:100E5000054B18460C37BD465DF8047B704700BF54
:100E6000A8EE000030EF00004CEF000080B500AFAE
:100E7000AA211948FFF750FD174807F09FFCFFF71C
:100E8000D1FC164807F010F81548FFF7DDFC4FF4C9
:100E90000040FFF7E9FC134807F07CFB124806F01E
:100EA0003BFD12494FF4E02006F056FD06F07CFCB5
:100EB00003460F4A136006F04FFC03460D4A1360C9
:100EC00006F05EFC03460C4A136006F0FDFB034689
:100ED0000A4A136000BF80BD00E00740DCF4000058
:100EE0000024F400C8F40000D4F40000006CDC021C
:100EF0006807FF1FB812FF1FBC12FF1FC012FF1FA1
:100F000080B582B000AF3B1D184607F0EBFF3B1DDC
:100F100019460F4807F094FF00220D490D4808F0CC
:100F2000F7F900220C490B4808F06EFA0B4B10221F
:100F30001A7002220021064808F038F80122002128
:100F40000348FFF785FD00BF0837BD4680BD00BFE1
:100F500000800040C412FF1FE540000000E400E0F4
:100F600080B500AF064807F0BDFE282200210448E6
:100F7000FFF740FD00210248FFF716FD00BF80BDCE
:100F80000010024080B584B000AF00233B71012304
:100F90007B710023BB710223FB7103233B7200238F
:100FA0007B720023BB720023FB7201233B7304237B
:100FB0007B73002202210F48FFF791FC3B1D19466D
:100FC0000D4807F05BFC0C4807F0ECFC01210A48D7
:100FD00007F080FD00210848FFF7C9FC10212720F9
:100FE000FFF7C2FB2720FFF7E9FB00BF1037BD4624
:100FF00080BD00BF00B0044000B0034080B584B0A5
:1010000000AF00233B7200237B720023BB720F23CF
:10101000FB7201233B7307F108031946124808F0DD
:101020004FFD124B1B8819460F48FFF765FD002145
:101030000D48FFF770FD00233B7101237B713B1DC1
:101040001A460021084808F08DFD094B1B881A46F6
:1010500000210548FFF76EFD0348FFF73DFD00BF87
:101060001037BD4680BD00BF00600340E60AFF1F89
:10107000E40AFF1F80B586B000AF10233B612B4B05
:101080001B78012B01D12A4B00E02A4BFB6007F1B2
:101090000803184608F02AFE01233B7200237B72E6
:1010A0003B1D184608F0A2FE00233B711F4B1B7826
:1010B000012B01D1012300E00023BB710F23FB7141
:1010C00007F1080319461C4808F0D0FD3B1D1946DE
:1010D000194808F02DFE0021174808F0DDFE002316
:1010E0007B610DE07B69D9B27B695B00FA681344D0
:1010F0001B881A46104808F0A1FE7B6901337B610A
:101100007B690F2BEED901210B48FFF75BFD012115
:101110000948FFF733FD10213820FFF725FB382061
:10112000FFF74CFB00BF1837BD4680BD3107FF1FDE
:1011300010F50000F0F4000000C00C40B0B58EB017
:1011400000AF7860084611461A460346FB700B460E
:10115000BB7013467B704FF000037B634FF00003BE
:101160003B634FF00003FB620023BB624BE0BB6AB2
:101170009B007A6813441B6807EE903AF8EE677A92
:101180009FED7B7A67EE877AC7ED047ABB6A07EE3C
:10119000903AF8EE676ABB7807EE903AB8EE677A55
:1011A000C6EE877A9FED737A67EE877AC7ED037A8A
:1011B00097ED0D7AD7ED047A77EE277AC7ED0D7AA1
:1011C00097ED030AFFF758F9B0EE407AD7ED047AAD
:1011D00067EE277A97ED0C7A77EE277AC7ED0C7ACF
:1011E00097ED030AFFF758F9B0EE407AD7ED047A8D
:1011F00067EE277A97ED0B7A77EE277AC7ED0B7AB1
:10120000BB6A0133BB62FB78BA6A9A42AFD3FB7800
:1012100007EE903AB8EEE77AD7ED0D6AC6EE877A18
:10122000C7ED097AFB7807EE903AB8EEE77AD7ED8A
:101230000C6AC6EE877AC7ED087AFB7807EE903A1B
:10124000B8EEE77AD7ED0B6AC6EE877AC7ED077A74
:10125000022097ED080A03F02BF855EC104B022002
:1012600097ED070A03F024F853EC102B204629468B
:101270000CF012FA02460B4643EC172BB0EE470A6D
:10128000F0EE670A0AF098FC51EC100B02460B4690
:101290000CF002FA02460B46104619460CF082FE8C
:1012A0000346BB6197ED077AD7ED087AC7EE276A48
:1012B000B0EE660AFFF7D0F887ED050A7B78002BC1
:1012C0004ED02D492D48FFF77BF9786A0CF042FB90
:1012D00002460B46042143EC102B2848FFF7ACF9DB
:1012E00027492648FFF76CF9386A0CF033FB0246B1
:1012F0000B46042143EC102B2048FFF79DF92149B0
:101300001E48FFF75DF9F8690CF024FB02460B4616
:10131000042143EC102B1948FFF78EF91A4917489E
:10132000FFF74EF9B8690CF015FB02460B46042195
:1013300043EC102B1148FFF77FF914490F48FFF7D2
:101340003FF978690CF006FB02460B46042143EC9A
:10135000102B0A48FFF770F90D490848FFF730F9DC
:10136000BB6907EE903AB0EE670A3837BD46B0BDAC
:10137000B81E5538DB0FC94068EF00008C07FF1F0F
:1013800078EF000084EF000090EF0000A0EF000075
:10139000ACEF000080B485B000AF78600E4B1B78D6
:1013A00083F00103DBB2002B01D07B680DE07B688A
:1013B00003F00F035B00FB607B6803F01003002B5E
:1013C00002D0FB68013300E0FB6818461437BD46C5
:1013D0005DF8047B704700BF5807FF1F80B586B0DB
:1013E00000AF00237B617B497B48FFF7E9F87A482F
:1013F000FFF75FF90021794808F081FF0021784864
:1014000008F07DFF0021774808F079FF0021764839
:1014100008F075FF00233B61744B1A683B69134465
:10142000734A1268B3FBF2F101FB02F29B1AFB60F4
:10143000C1E03869FFF7AEFF0346DBB219466748E3
:1014400008F000FFF868FFF7A5FF0346DBB2194676
:10145000634808F0F7FE0121614808F050FF0121C0
:101460005E4808F04CFF3B690133614A1268B3FBE8
:10147000F2F101FB02F29B1ABB60BB6801335C4ACC
:101480001268B3FBF2F101FB02F29B1A7B606BE086
:10149000FA68BB689A4252D0FA687B689A424ED08A
:1014A000B868FFF777FF0346DBB219464D4808F0EE
:1014B000C9FE7868FFF76EFF0346DBB219464A485B
:1014C00008F0C0FE0121474808F019FF01214648F5
:1014D00008F015FF474B1B68DBB21946464802F07F
:1014E00059FE00213F4808F00AFF00213E4808F05D
:1014F00006FF424B1B689B003F4A9818404B1B68F5
:10150000D9B2404B1B68DAB20023FFF717FE87ED14
:10151000000A7B6901337B6138680CF01BFA0246D4
:101520000B46042143EC102B2B48FFF785F8364976
:101530002948FFF745F82848FFF7BBF800E000BF4F
:10154000BB6801332A4A1268B3FBF2F101FB02F2D5
:101550009B1ABB60BB680133254A1268B3FBF2F1EA
:1015600001FB02F29B1A7B60BA683B699A4203D086
:101570007A683B699A428BD10021184808F0BFFE77
:101580000021174808F0BBFE0021164808F0B7FEFE
:101590000021154808F0B3FE3B6901333B61134B52
:1015A0001A683B691344124A1268B3FBF2F101FB5B
:1015B00002F29B1AFB600E4B1B683A699A42FFF4D9
:1015C00038AF12490448FEF7FBFF00BF1837BD468D
:1015D00080BD00BFB0EF00008C07FF1F8C09FF1F0C
:1015E000EC09FF1FCC08FF1F2C09FF1F3C07FF1F42
:1015F0003807FF1FDC0AFF1FE80AFF1F5407FF1F01
:10160000D80AFF1F5007FF1FC0EF0000ACEF00001B
:1016100080B500AF28492948FFF722F82748FFF78F
:1016200048F80020FFF7B6FE0346DBB2194624480F
:1016300008F008FE0120FFF7ADFE0346DBB21946B5
:10164000204808F0FFFD0220FFF7A4FE0346DBB2AE
:1016500019461D4808F0F6FD0320FFF79BFE0346E0
:10166000DBB21946194808F0EDFD0121144808F0D5
:1016700046FE0121134808F042FE0121124808F0FD
:101680003EFE0121114808F03AFE012000F02CFC3A
:101690000F4B1B689B000F4A98180F4B1B68D9B261
:1016A0000E4B1B68DAB20123FFF748FD0348FFF732
:1016B00000F800BF80BD00BFC4EF00008C07FF1F13
:1016C0008C09FF1FEC09FF1FCC08FF1F2C09FF1F0F
:1016D0005407FF1FE80AFF1FD80AFF1F5007FF1F0C
:1016E00080B586B000AF86498648FEF769FF864917
:1016F0008448FEF765FF854B1B6819468148FEF755
:101700008BFF83497F48FEF75BFF00237B6110E07E
:101710007B691846FFF73EFE0346013319467948B8
:10172000FEF76AFF7B497748FEF74AFF7B69013382
:101730007B617A69784B1B689A42E9D37148FEF75E
:10174000B8FF0021754808F0DAFD0021744808F060
:10175000D6FD0021734808F0D2FD0021724808F040
:10176000CEFD00233B61694B1B68FB60B6E06F490F
:101770006448FEF725FF3869FFF70CFE0346013386
:1017800019466048FEF738FF69495E48FEF718FFC2
:10179000F868FFF7FFFD0346013319465948FEF785
:1017A0002BFF5C495748FEF70BFF5648FEF781FFB9
:1017B0003869FFF7EFFD0346DBB21946574808F0DA
:1017C00041FDF868FFF7E6FD0346DBB219465448D1
:1017D00008F038FD0121514808F091FD01215048E1
:1017E00008F08DFD0023BB6001237B6057E0B868E3
:1017F000FFF7D0FD0346DBB219464A4808F022FD48
:101800007868FFF7C7FD0346DBB21946464808F083
:1018100019FD0121434808F072FD0121424808F0FA
:101820006EFD444B1B68DBB21946434802F0B2FC24
:1018300000213C4808F063FD00213B4808F05FFDB3
:101840003E4B1B689B003C4A98183D4B1B68D9B225
:101850003C4B1B68DAB20023FFF770FC87ED000AEF
:1018600038680CF077F802460B46042143EC102B45
:101870002448FEF7E1FE27492248FEF7A1FE214851
:10188000FEF717FFBB680133BB60BB680133224A18
:101890001268B3FBF2F101FB02F29B1A7B601E4B54
:1018A0001B68BA689A42A2D31648FEF702FF0021CD
:1018B0001A4808F024FD0021194808F020FD3B6972
:1018C00001333B61114B1A683B691344124A126899
:1018D000B3FBF2F101FB02F29B1AFB600E4B1B689B
:1018E0003A699A42FFF443AF10490648FEF768FE92
:1018F0000448FEF7DEFE00BF1837BD4680BD00BFBE
:10190000F0EF00008C07FF1F0CF000003C07FF1FEA
:1019100018F0000024F000003807FF1F8C09FF1F9B
:10192000EC09FF1FCC08FF1F2C09FF1FACEF0000C4
:10193000C0EF0000DC0AFF1FE80AFF1F5407FF1F6B
:10194000D80AFF1F5007FF1F80B584B000AF3A4987
:101950003A48FEF785FE3948FEF7ABFE00213848CD
:1019600008F0CDFC0021374808F0C9FC00213648BA
:1019700008F0C5FC0021354808F0C1FC0023BB601D
:101980000123FB6047E0B868FFF704FD0346DBB2C4
:1019900019462D4808F056FCF868FFF7FBFC034693
:1019A000DBB21946294808F04DFC0121264808F011
:1019B000A6FC0121254808F0A2FC00237B603B1D0A
:1019C0000121184602F0E6FB00211F4808F097FCB1
:1019D00000211E4808F093FC7B6807EE903AF8EE71
:1019E000677A9FED1B7A67EE877A17EE900A0BF005
:1019F000B1FF02460B46042143EC102B0F48FEF7C3
:101A00001BFE14490D48FEF7DBFD0C48FEF751FEA6
:101A1000FB680133FB60104B1B68FA689A42B2D333
:101A20000E490648FEF7CCFD0448FEF742FE00BF13
:101A30001037BD4680BD00BF28F000008C07FF1F97
:101A40008C09FF1FEC09FF1FCC08FF1F2C09FF1F8B
:101A5000B81E553824F000003807FF1FACEF000017
:101A600080B586B000AF6C496C48FEF7F9FD6B4855
:101A7000FEF71FFE00216A4808F041FC002169487A
:101A800008F03DFC0021684808F039FC0021674857
:101A900008F035FC0023FB6001237B614DE0F86812
:101AA000FFF778FC0346DBB219465F4808F0CAFB33
:101AB0007869FFF76FFC0346DBB219465B4808F014
:101AC000C1FB0121584808F01AFC0121574808F0D1
:101AD00016FC574B1B68DBB21946564802F05AFBFE
:101AE0000021514808F00BFC0021504808F007FC89
:101AF000514B1B689B004F4A9818504B1B68D9B23A
:101B00004F4B1B68DAB20023FFF718FB87ED000A82
:101B100038680BF01FFF02460B46042143EC102BE4
:101B20003E48FEF789FD47493C48FEF749FD3B48E2
:101B3000FEF7BFFD7B6901337B61434B1B687A690C
:101B40009A42ACD341493548FEF73AFD3348FEF797
:101B5000B0FD0023BB6001233B614DE0B868FFF797
:101B600019FC0346DBB21946304808F06BFB3869B4
:101B7000FFF710FC0346DBB219462B4808F062FB66
:101B80000121294808F0BBFB0121284808F0B7FBD8
:101B9000274B1B68DBB21946264802F0FBFA0021EE
:101BA000214808F0ACFB0021204808F0A8FB224B9C
:101BB0001B689B001F4A9818204B1B68D9B2204B0A
:101BC0001B68DAB20023FFF7B9FA87ED010A7868DB
:101BD0000BF0C0FE02460B46042143EC102B0F48CD
:101BE000FEF72AFD17490D48FEF7EAFC0B48FEF701
:101BF00060FD3B6901333B61134B1B683A699A42B4
:101C0000ACD312490548FEF7DBFC0448FEF751FD52
:101C100000BF1837BD4680BD48F000008C07FF1F8D
:101C20008C09FF1FEC09FF1FCC08FF1F2C09FF1FA9
:101C3000DC0AFF1FE80AFF1F5407FF1FD80AFF1F17
:101C40005007FF1F24F000003807FF1FACEF000013
:101C500080B588B000AF0023FB6193499348FEF73D
:101C6000AFFC93499148FEF7ABFC9048FEF721FD8D
:101C70000021904808F043FB00218F4808F03FFB0B
:101C800000218E4808F03BFB00218D4808F037FB0F
:101C90000023BB618B4B1A68BB6913448A4A1268E4
:101CA000B3FBF2F101FB02F29B1A7B61EEE0B86933
:101CB000FFF770FB0346DBB219467E4808F0C2FA14
:101CC0007869FFF767FB0346DBB219467A4808F0EC
:101CD000B9FA0121784808F012FB0121754808F093
:101CE0000EFBBB690133784A1268B3FBF2F101FBCA
:101CF00002F29B1A3B613B690133734A1268B3FBE2
:101D0000F2F101FB02F29B1AFB6097E07A693B69F2
:101D10009A427ED07A69FB689A427AD06B496348CE
:101D2000FEF74EFCBB69013319466048FEF764FCC0
:101D30002C215E48FEF732FC7B69013319465B4873
:101D4000FEF75AFC62495948FEF73AFC3B690133F9
:101D500019465648FEF750FC2C215448FEF71EFC4D
:101D6000FB68013319465148FEF746FC58494F4875
:101D7000FEF726FC4D48FEF79CFC3869FFF70AFB8E
:101D80000346DBB219464D4808F05CFAF868FFF7E5
:101D900001FB0346DBB21946494808F053FA01211A
:101DA000464808F0ACFA0121454808F0A8FA494B2A
:101DB0001B68DBB21946484802F0ECF900213F48A5
:101DC00008F09DFA00213E4808F099FA0023BB6014
:101DD00013E0424B1A68BB6813443F4A52F8233061
:101DE000FB80FB8819463148FEF7F8FB3C492F4839
:101DF000FEF7E6FBBB680133BB60BA68394B1B6872
:101E00009A42E6D3FB690133FB612848FEF751FC97
:101E100000E000BF3B6901332B4A1268B3FBF2F1CB
:101E200001FB02F29B1A3B613B690133264A1268AF
:101E3000B3FBF2F101FB02F29B1AFB603A69BB694A
:101E40009A4204D0FA68BB699A427FF45FAF0021DE
:101E5000184808F054FA0021174808F050FA0021F9
:101E6000164808F04CFA0021154808F048FABB69FA
:101E70000133BB61134B1A68BB691344124A1268E1
:101E8000B3FBF2F101FB02F29B1A7B610E4B1B6864
:101E9000BA699A42FFF40BAF0C490448FEF790FB75
:101EA00000BF2037BD4680BD54F000008C07FF1FE7
:101EB00064F000008C09FF1FEC09FF1FCC08FF1F16
:101EC0002C09FF1F3C07FF1F3807FF1FACEF000066
:101ED00024F00000DC0AFF1FE80AFF1F5407FF1F61
:101EE000C0EF0000D80AFF1FB0B58EB000AF0346A8
:101EF000FB714FF6FF73FB860023BB8600233B6319
:101F0000964B1B68DBB21946954802F043F9954998
:101F10009548FEF755FB95499348FEF751FB944BC6
:101F20001B6819469048FEF777FB92498E48FEF7EA
:101F300047FB0023FB6226E08F4B1A68FB6A1344C1
:101F4000874A52F82330FB81FB893A6B13443B6389
:101F5000FA8EFB899A4201D9FB89FB86BA8EFB89EE
:101F60009A4201D2FB89BB86FB79002B08D0FB8902
:101F700019467D48FEF732FB80497B48FEF720FB7F
:101F8000FB6A0133FB62FA6A794B1B689A42D3D32E
:101F90003B6B07EE903AF8EE676A754B1B6807EEED
:101FA000903AB8EE677AC6EE877AC7ED087AFB7981
:101FB000002B03D06F496C48FEF702FB70496A485A
:101FC000FEF7FEFAFB8E07EE903AF8EEE77A9FED09
:101FD0006D7A67EE877A17EE900A0BF0BBFC02462B
:101FE0000B46042143EC102B5F48FEF725FB6149AB
:101FF0005D48FEF7E5FA64495B48FEF7E1FABB8EFF
:1020000007EE903AF8EEE77A9FED5E7A67EE877A10
:1020100017EE900A0BF09EFC02460B46042143EC9F
:10202000102B5148FEF708FB52494F48FEF7C8FAFB
:1020300056494D48FEF7C4FAD7ED087A9FED517A1C
:1020400067EE877A17EE900A0BF084FC02460B4687
:10205000042143EC102B4448FEF7EEFA4549424870
:10206000FEF7AEFA4FF00003BB6200237B622FE065
:10207000414B1A687B6A1344394A52F8233007EE01
:10208000903AF8EE677AC7ED057A3B6A3B6197EDC7
:10209000057AD7ED047A77EE677A0220B0EE670A08
:1020A00002F006F955EC104BB86A0BF053FC0246EF
:1020B0000B46204629460BF0EFFA02460B46104627
:1020C00019460BF06FFF0346BB627B6A01337B62EC
:1020D0007A6A274B1B689A42CAD3254B1B6807EEC6
:1020E000903AF8EE677A97ED0A7AC7EE276A16EE0D
:1020F000900A0BF02FFC04460D4602209FED210AAA
:1021000002F0D6F853EC102B204629460BF07AFC4F
:1021100002460B46104619460BF044FF0346FB618E
:1021200097ED070AFEF7C8F987ED060A18490E4829
:10213000FEF746FAB8690BF00DFC02460B46042187
:1021400043EC102B0848FEF777FA0A490648FEF7D9
:1021500037FA00BF3837BD46B0BD00BFDC0AFF1FED
:10216000E80AFF1F7CF000008C07FF1F8CF00000C6
:10217000D80AFF1FACEF00005407FF1FC0EF00009C
:1021800098F00000B81E5538A0F00000A8F000003C
:10219000B0F0000080B582B000AF78607968034885
:1021A000FEF70EFA00BF0837BD4680BD8C07FF1F43
:1021B00080B582B000AF78607968034802F02EFFE6
:1021C00000BF0837BD4680BD8C07FF1F80B582B0B9
:1021D00000AF0346FB80FB8819460348FEF7FEF973
:1021E00000BF0837BD4680BD8C07FF1F80B582B099
:1021F00000AF786079680348FEF70EFA00BF083731
:10220000BD4680BD8C07FF1F80B582B000AF87ED53
:10221000010A78680BF09EFB02460B46022143EC54
:10222000102B0348FEF708FA00BF0837BD4680BDF3
:102230008C07FF1F80B582B000AF0346FB71FB79AE
:102240001846FEF7BDFD034619460A48FEF7B8F9E1
:1022500009490848FEF7B4F9FB7919460548FEF725
:10226000BDF95D210348FEF799F900BF0837BD4667
:1022700080BD00BF8C07FF1FBCF0000080B582B09E
:1022800000AF0346FB71FB791846FEF7D3FD03460A
:1022900019460A48FEF794F909490848FEF790F9EB
:1022A000FB7919460548FEF799F95D210348FEF7C9
:1022B00075F900BF0837BD4680BD00BF8C07FF1F02
:1022C000BCF0000080B500AF0248FFF763FF00BF1D
:1022D00080BD00BFC0F0000080B500AFFFF7F2FF87
:1022E000FFF7F0FF0548FFF755FFFFF7EBFF044846
:1022F000FFF750FFFFF7E6FF00BF80BDC8F000000A
:10230000DCF0000080B584B000AFF860B9607A609E
:102310003B607968B868FEF7F9F80346002B14BFF4
:1023200001230023DBB2002B01D0002310E0FFF7D4
:10233000C9FFF868FFF73CFF0748FFF72BFF3B6832
:102340001B881846FFF742FF0448FFF723FF0123CD
:1023500018461037BD4680BDECF00000ACEF000021
:1023600080B584B000AFF860B9607A603B6079688E
:10237000B868FEF7CBF80346002B14BF01230023F7
:10238000DBB2002B01D0002310E0FFF79BFFF868C1
:10239000FFF70EFF0748FFF7FDFE3B681B68184676
:1023A000FFF724FF0448FFF7F5FE01231846103716
:1023B000BD4680BDECF00000ACEF000080B584B0FD
:1023C00000AFF860B9607A603B607968B868FEF782
:1023D0009DF80346002B14BF01230023DBB2002B22
:1023E00001D0002312E0FFF76DFFF868FFF7E0FE71
:1023F0000848FFF7CFFE3B68D3ED007AB0EE670ADE
:10240000FFF702FF0448FFF7C5FE01231846103707
:10241000BD4680BDECF00000ACEF000080B584B09C
:1024200000AFF860B9607A603B607968B868FEF721
:102430006DF80346002B14BF01230023DBB2002BF1
:1024400001D0002315E0FFF73DFFF868FFF7B0FE6D
:102450000A48FFF79FFE3B681B78002B01D0084B12
:1024600000E0084B1846FFF795FE0748FFF792FE7D
:10247000012318461037BD4680BD00BFECF00000B8
:10248000F0F00000F8F00000ACEF000080B584B080
:1024900000AFF860B9607A603B607968B868FEF7B1
:1024A00035F80346002B14BF01230023DBB2002BB9
:1024B00001D0002320E03868FEF74EF803461846A6
:1024C0000BF03EFF03463A6AF969184601F011FF26
:1024D0000246BB691A60FFF7F5FEF868FFF768FE71
:1024E0000748FFF757FEBB691B681846FFF77EFEDB
:1024F0000448FFF74FFE012318461037BD4680BD44
:10250000ECF00000ACEF000080B584B000AFF860E4
:10251000B9607A603B607968B868FDF7F7FF0346F9
:10252000002B14BF01230023DBB2002B01D00023BA
:1025300028E016493868FDF7DBFF0346002B06D17B
:1025400013493868FDF7D4FF0346002B01D0012260
:1025500000E00022BB691A70FFF7B4FEF868FFF7CD
:1025600027FE0C48FFF716FEBB691B78002B01D035
:10257000064B00E0084B1846FFF70CFE0748FFF734
:1025800009FE012318461037BD4680BDF0F000005B
:1025900000F10000ECF00000F8F00000ACEF0000EB
:1025A00080B582B000AF0346FB711A48FFF7F2FD19
:1025B000FB79002B02D01848FFF7ECFD1748FFF716
:1025C000E9FD1748FFF7E6FD1648FFF7E3FD16485B
:1025D000FFF7E0FD1548FFF7DDFD1548FFF7DAFDD1
:1025E0001448FFF7D7FD1448FFF7D4FD1348FFF751
:1025F000D1FD1348FFF7CEFD1248FFF7CBFD12487F
:10260000FFF7C8FD1148FFF7C5FD00BF0837BD46FD
:1026100080BD00BF04F1000018F1000020F10000AF
:102620002CF1000034F100003CF100004CF10000FE
:1026300064F100007CF1000084F100009CF10000D6
:10264000ACF10000C0F10000D0F10000ACEF0000E0
:1026500080B500AFFFF736FE0448FFF79BFD012071
:10266000FFF79EFF0123184680BD00BFE0F1000088
:1026700080B500AFFFF726FE0448FFF78BFD002072
:10268000FFF78EFF0123184680BD00BFF8F1000060
:1026900080B582B000AF7860FFF714FE7868FFF76E
:1026A00087FD0548FFF776FD0120FFF779FF01233D
:1026B00018460837BD4680BD18F2000080B500AF4F
:1026C000FFF700FE0548FFF765FD0548FFF762FDCF
:1026D0000448FFF75FFD0123184680BD28F2000083
:1026E00040F20000ACEF000080B582B000AF78602F
:1026F000FFF7E8FD0748FFF74DFD7868FFF758FD45
:102700000548FFF747FDFFF7D9FF012318460837B3
:10271000BD4680BD5CF2000068F2000080B582B06A
:1027200000AF7860AC497868FDF703FF0346002BE3
:1027300014BF01230023DBB2002B01D0002347E1AB
:10274000FFF7C0FDFFF7BEFDA448FFF723FDA44837
:10275000FFF720FDA34B1B781846FFF76BFDFFF733
:10276000B1FDA148FFF716FD9D48FFF713FD9F4BF4
:102770001B781846FFF782FDFFF7A4FDFFF7A2FDC7
:102780009B48FFF707FD9648FFF704FD994B1B6830
:102790001846FFF72BFD9848FFF7FCFCFFF792FD6A
:1027A0009648FFF7F7FC8E48FFF7F4FC944B1B6844
:1027B0001846FFF71BFDFFF785FD9248FFF7EAFC7F
:1027C0008748FFF7E7FC904B1B681846FFF70EFDA4
:1027D000FFF778FD8D48FFF7DDFC8148FFF7DAFC55
:1027E0008B4B1B681846FFF701FD8A48FFF7D2FCA8
:1027F000FFF768FD8848FFF7CDFC7948FFF7CAFC72
:10280000864B1B681846FFF7F1FC8248FFF7C2FCB5
:10281000FFF758FD8248FFF7BDFC7148FFF7BAFC8F
:10282000804B1B681846FFF7E1FC7A48FFF7B2FCC3
:10283000FFF748FD7C48FFF7ADFC6948FFF7AAFCAD
:102840007A4B1B681846FFF7D1FCFFF73BFD784831
:10285000FFF7A0FC6248FFF79DFC764B1B6818460B
:10286000FFF7C4FCFFF72EFD7348FFF793FC5C48AD
:10287000FFF790FC714B1B681846FFF7B7FCFFF79A
:1028800021FD6F48FFF786FC5548FFF783FC6D4B31
:102890001B78002B01D06C4B00E06C4B1846FFF707
:1028A00079FCFFF70FFDFFF70DFD6948FFF772FC9C
:1028B0004B48FFF76FFC674B1B681846FFF796FC09
:1028C0006548FFF767FCFFF7FDFC6448FFF762FC13
:1028D0004348FFF75FFC624B1B78002B01D05A4B3B
:1028E00000E05A4B1846FFF755FCFFF7EBFC5D483C
:1028F000FFF750FC3A48FFF74DFC5B4B1B6818464E
:10290000FFF774FCFFF7DEFC5848FFF743FC344840
:10291000FFF740FC564B1B681846FFF767FCFFF7B4
:10292000D1FC5448FFF736FC2D48FFF733FC524BDF
:102930001B681846FFF75AFC4748FFF72BFCFFF7C8
:10294000C1FC4E48FFF726FC2548FFF723FC4C4B03
:10295000D3ED007AB0EE670AFFF756FC4948FFF75F
:1029600019FCFFF7AFFCFFF7ADFC4748FFF712FC7F
:102970001B48FFF70FFC454B1B881846FFF726FC4A
:10298000FFF7A0FC4248FFF705FC1548FFF702FCE3
:10299000404B1B881846FFF719FCFFF793FC3E4895
:1029A000FFF7F8FB0E48FFF7F5FB3C4B1B8818467A
:1029B000FFF70CFCFFF786FC3948FFF7EBFB0848F4
:1029C000FFF7E8FB374B1B881846FFF7FFFB012397
:1029D00018460837BD4680BD78F200007CF2000042
:1029E000ECF00000C80AFF1F84F200003107FF1F4F
:1029F0008CF200003407FF1F94F2000098F20000F0
:102A00003C07FF1FA0F200003807FF1FACF20000D8
:102A10004007FF1FC0F20000C8F200004407FF1F7C
:102A2000DCF200004807FF1FF0F200004C07FF1F18
:102A300000F300005007FF1F10F300005407FF1FB2
:102A400020F300005807FF1FF0F00000F8F000002E
:102A50002CF300006007FF1F3CF3000040F3000070
:102A60003007FF1F44F30000DC0AFF1F4CF3000097
:102A7000D80AFF1F5CF30000CC0AFF1F6CF30000B4
:102A8000D40AFF1F7CF3000084F30000E00AFF1F5C
:102A900090F30000E20AFF1FA0F30000E40AFF1F0A
:102AA000B4F30000E60AFF1F2DE9F04FADF5597DA4
:102AB00000AF07F55873A3F53173186007F5587325
:102AC000A3F53273196007F55873A3F531731249F2
:102AD0001868FDF72EFD0346002B14BF01230023C9
:102AE000DBB2002B02D0002400F025BD07F558739F
:102AF000A3F532731868FDF7EFFC0346002B0CBFFB
:102B000001230023DBB2002B08D0FFF7A1FD034611
:102B10001C4600F010BD00BFBCF300000023C7F846
:102B200094300023C7F890300023C7F88C3000237E
:102B3000C7F888300023C7F884300023C7F88030F6
:102B40000023FB670023BB6700237B6700233B67F1
:102B50000023FB660023BB6600237B6600233B66E5
:102B60000023FB650023BB6500237B6500233B65D9
:102B70000023FB640023BB6400237B6400233B64CD
:102B80000023FB630023BB6300237B6300233B63C1
:102B90000023FB620023BB6200237B6200233B62B5
:102BA0000023FB610023BB6100237B6100233B61A9
:102BB0000023FB600023BB6000237B6000233B609D
:102BC0004FF0000B4FF0000A4FF000094FF00008E3
:102BD0000026002507F55873A3F532731868FFF730
:102BE0009DFD0346002B40F00F8307F1A003D2495F
:102BF000184603F023FD0123C7F8943007F1B00312
:102C0000CD49184603F01AFD0123C7F8903007F5A7
:102C10005873A3F5327207F1B00107F1A000C74B5A
:102C2000126801F07FFB0346002B40F0ED8207F1B4
:102C3000C003C349184603F001FD0123C7F88C30D7
:102C400007F1D003BF49184603F0F8FC0123C7F889
:102C5000883007F55873A3F5327207F1D00107F1F8
:102C6000C000B94B126801F08BFB0346002B40F00B
:102C7000CB8207F1E003B549184603F0DFFC0123DE
:102C8000C7F8843007F1F003B049184603F0D6FCCA
:102C90000123C7F8803007F55873A3F5327207F1A6
:102CA000F00107F1E000AA4B1268FFF759FB034659
:102CB000002B40F0A98207F58073A649184603F05F
:102CC000BDFC0123FB6707F58873A249184603F092
:102CD000B5FC0123BB6707F55873A3F5327207F5FE
:102CE000887107F580709C4B1268FFF739FB03462B
:102CF000002B40F0898207F590739849184603F03D
:102D00009DFC01237B6707F598739449184603F0EF
:102D100095FC01233B6707F55873A3F5327207F55D
:102D2000987107F590708E4B1268FFF719FB0346F8
:102D3000002B40F0698207F5A0738A49184603F01A
:102D40007DFC0123FB6607F5A8738749184603F04D
:102D500075FC0123BB6607F55873A3F5327207F5BE
:102D6000A87107F5A070814B1268FFF7F9FA0346C6
:102D7000002B40F0498207F5B0737D49184603F0F7
:102D80005DFC01237B6607F5B8737A49184603F0AA
:102D900055FC01233B6607F55873A3F5327207F51E
:102DA000B87107F5B070744B1268FFF7D9FA034693
:102DB000002B40F0298207F5C0737049184603F0D4
:102DC0003DFC0123FB6507F5C8736D49184603F008
:102DD00035FC0123BB6507F55873A3F5327207F57F
:102DE000C87107F5C070674B1268FFF7B9FA034660
:102DF000002B40F0098207F5D0736349184603F0B1
:102E00001DFC01237B6507F5D8736049184603F064
:102E100015FC01233B6507F55873A3F5327207F5DE
:102E2000D87107F5D0705A4B1268FFF799FA03462C
:102E3000002B40F0E98107F5E0735649184603F08E
:102E4000FDFB0123FB6407F5E8735349184603F0C3
:102E5000F5FB0123BB6407F55873A3F5327207F540
:102E6000E87107F5E0704D4B1268FFF779FA0346F9
:102E7000002B40F0C98107F5F0734949184603F06B
:102E8000DDFB01237B6407F5F8734649184603F020
:102E9000D5FB01233B6407F55873A3F5327207F5A0
:102EA000F87107F5F070404B1268FFF759FA0346C6
:102EB000002B40F0A98107F500733C49184603F048
:102EC000BDFB0123FB6307F504733849184603F083
:102ED000B5FB0123BB6307F55873A3F5327207F501
:102EE000047107F50070324B1268FFF797FA03463A
:102EF000002B40F0898107F508732E49184603F02E
:102F00009DFB01237B6307F50C732B49184603F0E7
:102F100095FB01233B6307F55873A3F5327207F560
:102F20000C7107F50870254B1268FFF719FA034674
:102F3000002B40F0698143E07CF20000C80AFF1FCB
:102F400084F20000C0F300003107FF1F8CF2000084
:102F50003407FF1F98F200003C07FF1FA0F200009B
:102F60003807FF1FACF20000C8F300004007FF1F46
:102F7000C8F20000DCF300004407FF1FDCF2000091
:102F8000F0F300004807FF1FF0F2000004F4000017
:102F90004C07FF1F00F3000014F400005007FF1F50
:102FA00010F3000024F400005407FF1F20F300007A
:102FB0005807FF1F2CF3000034F400006007FF1FC8
:102FC00007F510739149184603F038FB0123FB62A3
:102FD00007F514738D49184603F030FB0123BB62DB
:102FE00007F55873A3F5327207F5147107F51070E1
:102FF000874B1268FFF712FA0346002B40F004815A
:1030000007F518738349184603F018FB01237B6208
:1030100007F51C737F49184603F010FB01233B6240
:1030200007F55873A3F5327207F51C7107F5187090
:10303000794B1268FFF794F90346002B40F0E480C7
:1030400007F520737549184603F0F8FA0123FB6170
:1030500007F524737249184603F0F0FA0123BB61A7
:1030600007F55873A3F5327207F5247107F5207040
:103070006C4B1268FFF774F90346002B40F0C480D4
:1030800007F528736849184603F0D8FA01237B61D5
:1030900007F52C736549184603F0D0FA01233B610C
:1030A00007F55873A3F5327207F52C7107F52870F0
:1030B0005F4B1268FFF754F90346002B40F0A480E1
:1030C00007F530735B49184603F0B8FA0123FB603B
:1030D00007F534735849184603F0B0FA0123BB6072
:1030E00007F55873A3F5327207F5347107F53070A0
:1030F000524B1268FFF762F90346002B40F08480C0
:1031000007F538734E49184603F098FA01237B609F
:1031100007F53C734A49184603F090FA01233B60D7
:1031200007F55873A3F5327207F53C7107F538704F
:10313000444B1268FFF7E6F80346002B64D107F50D
:1031400040734149184603F079FA4FF0010B07F537
:1031500044733E49184603F071FA4FF0010A07F52F
:103160005873A3F5327207F5447107F54070384B78
:103170001268FFF7C7F80346002B45D107F54873DF
:103180003449184603F05AFA4FF0010907F54C7319
:103190003149184603F052FA4FF0010807F5587309
:1031A000A3F5327207F54C7107F548702B4B126886
:1031B000FFF7A8F80346002B26D107F550732849DE
:1031C000184603F03BFA012607F5547325491846C3
:1031D00003F034FA012507F55873A3F5327207F5A9
:1031E000547107F55070204B1268FFF78BF80346B7
:1031F000002B09D107F55873A3F532731868FFF750
:1032000047FA0346002B31D0012430E040F30000A0
:103210003007FF1F44F30000DC0AFF1F4CF30000DF
:1032200044F40000D80AFF1F5CF3000054F40000CF
:10323000CC0AFF1F6CF3000064F40000D40AFF1FE7
:1032400084F30000E00AFF1F90F3000074F4000014
:10325000E20AFF1FA0F3000084F40000E40AFF1F4D
:10326000B4F3000098F40000E60AFF1F0024002DCC
:1032700004D007F55473184603F00AFA002E04D060
:1032800007F55073184603F003FAB8F1000F04D0A5
:1032900007F54C73184603F0FBF9B9F1000F04D0A1
:1032A00007F54873184603F0F3F9BAF1000F04D09C
:1032B00007F54473184603F0EBF9BBF1000F04D097
:1032C00007F54073184603F0E3F93B68002B04D080
:1032D00007F53C73184603F0DBF97B68002B04D03C
:1032E00007F53873184603F0D3F9BB68002B04D0F8
:1032F00007F53473184603F0CBF9FB68002B04D0B4
:1033000007F53073184603F0C3F93B69002B04D06E
:1033100007F52C73184603F0BBF97B69002B04D02A
:1033200007F52873184603F0B3F9BB69002B04D0E6
:1033300007F52473184603F0ABF9FB69002B04D0A2
:1033400007F52073184603F0A3F93B6A002B04D05D
:1033500007F51C73184603F09BF97B6A002B04D019
:1033600007F51873184603F093F9BB6A002B04D0D5
:1033700007F51473184603F08BF9FB6A002B04D091
:1033800007F51073184603F083F93B6B002B04D04C
:1033900007F50C73184603F07BF97B6B002B04D008
:1033A00007F50873184603F073F9BB6B002B04D0C4
:1033B00007F50473184603F06BF9FB6B002B04D080
:1033C00007F50073184603F063F93B6C002B04D03B
:1033D00007F5F873184603F05BF97B6C002B04D0FB
:1033E00007F5F073184603F053F9BB6C002B04D0BB
:1033F00007F5E873184603F04BF9FB6C002B04D07B
:1034000007F5E073184603F043F93B6D002B04D039
:1034100007F5D873184603F03BF97B6D002B04D0F9
:1034200007F5D073184603F033F9BB6D002B04D0B9
:1034300007F5C873184603F02BF9FB6D002B04D079
:1034400007F5C073184603F023F93B6E002B04D038
:1034500007F5B873184603F01BF97B6E002B04D0F8
:1034600007F5B073184603F013F9BB6E002B04D0B8
:1034700007F5A873184603F00BF9FB6E002B04D078
:1034800007F5A073184603F003F93B6F002B04D037
:1034900007F59873184603F0FBF87B6F002B04D0F8
:1034A00007F59073184603F0F3F8BB6F002B04D0B8
:1034B00007F58873184603F0EBF8FB6F002B04D078
:1034C00007F58073184603F0E3F8D7F88030002B37
:1034D00004D007F1F003184603F0DAF8D7F8843087
:1034E000002B04D007F1E003184603F0D1F8D7F819
:1034F0008830002B04D007F1D003184603F0C8F839
:10350000D7F88C30002B04D007F1C003184603F025
:10351000BFF8D7F89030002B04D007F1B00318465D
:1035200003F0B6F8D7F89430002B04D007F1A003CD
:10353000184603F0ADF82346184607F55977BD46FF
:10354000BDE8F08F2DE9F04FADF5077D04AF07F52D
:103550000273A3F5DE73186007F50273A3F5E07339
:10356000196007F50273A3F5DE733C491868FCF790
:10357000E0FF0346002B14BF01230023DBB2002B26
:1035800001D000245EE307F174033549184603F0C7
:1035900055F807F1740207F50273A3F5E0731146BD
:1035A000186803F07DFAC7F8040207F1740318469F
:1035B00003F06EF8D7F80432B3F1FF3F04D1FFF700
:1035C00057F803461C463DE3D7F8043207F502726C
:1035D000A2F5D27007F50272A2F5E0710022096827
:1035E00003F0A5FA07F50273A3F5E0731868FCF77A
:1035F00073FF0246D7F804329A4206D807F1540303
:103600001849184603F01AF80EE0D7F804320133CF
:103610001A4607F50273A3F5DA7007F50273A3F5EE
:10362000E073196803F072FA07F164031846FCF7B7
:1036300053FF0346002B07D007F154031846FCF74D
:103640004BFF0346002B01D1012300E00023002B98
:103650000AD0FFF70DF803461C46E9E2A0F400008B
:10366000A4F40000A8F4000000237B6400233B6462
:103670000023FB630023BB6300237B6300233B63C6
:103680000023FB620023BB6200237B6200233B62BA
:103690000023FB610023BB6100237B6100233B61AE
:1036A0000023FB600023BB604FF0000B4FF0000ACB
:1036B0004FF000094FF000080026002507F18403B1
:1036C000CD49184602F0BAFF01237B6007F194034D
:1036D000C949184602F0B2FF01233B6007F15404C8
:1036E00007F1640207F1940107F18400C34B0093D2
:1036F000234600F073FE0346002B40F0D58107F10E
:10370000A403BF49184602F099FF01237B6407F127
:10371000B403BC49184602F091FF01233B6407F152
:10372000540407F1640207F1B40107F1A400B64B99
:103730000093234600F092FE0346002B40F0B48134
:1037400007F1C403B149184602F078FF0123FB6377
:1037500007F1D403AD49184602F070FF0123BB63A3
:1037600007F1540407F1640207F1D40107F1C40022
:1037700042F21073029300230193A54B009323465A
:10378000FEF784FE0346002B40F08E8107F1E40330
:10379000A049184602F052FF01237B6307F1F403AE
:1037A0009C49184602F04AFF01233B639A4B1B6871
:1037B0005B0807F1540407F1640207F1F40107F113
:1037C000E400029301230193944B00932346FEF7F8
:1037D0005DFE0346002B40F0678107F58273904938
:1037E000184602F02BFF0123FB6207F58A738C4910
:1037F000184602F023FF0123BB6207F1540407F1CE
:10380000640207F58A7107F582702023029304236E
:103810000193814B00932346FEF738FE0346002BAD
:1038200040F0428107F592737E49184602F006FF88
:1038300001237B6207F59A737B49184602F0FEFE6E
:1038400001233B6207F1540407F1640207F59A7102
:1038500007F592704CF25033029300230193734B9F
:1038600000932346FEF712FE0346002B40F01C8116
:1038700007F5A2736E49184602F0E0FE0123FB61D2
:1038800007F5AA736B49184602F0D8FE0123BB6105
:1038900007F1540407F1640207F5AA7107F5A27055
:1038A0004CF25033029300230193634B0093234661
:1038B000FEF7ECFD0346002B40F0F68007F5B273EF
:1038C0005E49184602F0BAFE01237B6107F5BA7320
:1038D0005B49184602F0B2FE01233B6107F1540434
:1038E00007F1640207F5BA7107F5B2704CF2503374
:1038F000029300230193534B00932346FEF7C6FD2A
:103900000346002B40F0D08007F5C2734E4918469D
:1039100002F094FE0123FB6007F5CA734B49184679
:1039200002F08CFE0123BB6007F1540407F164022E
:1039300007F5CA7107F5C27014230293012301939E
:10394000434B00932346FEF7A1FD0346002B40F0B6
:10395000AB8007F5D2733F49184602F06FFE4FF077
:10396000010B07F5DA733C49184602F067FE4FF089
:10397000010A07F1540407F1640207F5DA7107F54B
:10398000D2701423029302230193344B00932346F5
:10399000FEF77CFD0346002B40F0868007F5E273BE
:1039A0002F49184602F04AFE4FF0010907F5EA7365
:1039B0002C49184602F042FE4FF0010807F154046A
:1039C00007F1640207F5EA7107F5E27064230293D8
:1039D00001230193244B00932346FEF757FD034632
:1039E000002B61D107F5F2732049184602F026FE3C
:1039F000012607F5FA733BE07CF20000C80AFF1FBE
:103A000084F20000C0F300003107FF1F8CF20000B9
:103A10003407FF1F98F200003807FF1F3C07FF1F05
:103A2000A0F20000ACF20000C8F300004007FF1F46
:103A3000C8F20000DCF300004407FF1FDCF20000C6
:103A4000F0F300004807FF1FF0F2000004F400004C
:103A50004C07FF1F00F3000014F400005007FF1F85
:103A600010F3000024F400005407FF1F20F30000AF
:103A70007849184602F0E2FD012507F1540407F1E8
:103A8000640207F5FA7107F5F270734B0093234651
:103A9000FEF73AFD0346002B06D107F164031846F2
:103AA000FEF7F6FD0346002B00BF002D04D007F5FE
:103AB000FA73184602F0ECFD002E04D007F5F273FD
:103AC000184602F0E5FDB8F1000F04D007F5EA73DF
:103AD000184602F0DDFDB9F1000F04D007F5E273DE
:103AE000184602F0D5FDBAF1000F04D007F5DA73DD
:103AF000184602F0CDFDBBF1000F04D007F5D273DC
:103B0000184602F0C5FDBB68002B04D007F5CA7348
:103B1000184602F0BDFDFB68002B04D007F5C27308
:103B2000184602F0B5FD3B69002B04D007F5BA73C7
:103B3000184602F0ADFD7B69002B04D007F5B27387
:103B4000184602F0A5FDBB69002B04D007F5AA7347
:103B5000184602F09DFDFB69002B04D007F5A27307
:103B6000184602F095FD3B6A002B04D007F59A73C6
:103B7000184602F08DFD7B6A002B04D007F5927386
:103B8000184602F085FDBB6A002B04D007F58A7346
:103B9000184602F07DFDFB6A002B04D007F5827306
:103BA000184602F075FD3B6B002B04D007F1F403BF
:103BB000184602F06DFD7B6B002B04D007F1E40387
:103BC000184602F065FDBB6B002B04D007F1D4034F
:103BD000184602F05DFDFB6B002B04D007F1C40317
:103BE000184602F055FD3B6C002B04D007F1B403DE
:103BF000184602F04DFD7B6C002B04D007F1A403A6
:103C0000184602F045FD3B68002B04D007F19403F1
:103C1000184602F03DFD7B68002B04D007F18403B9
:103C2000184602F035FDFDF73BF800F0FFFA0124DD
:103C300007F15403184602F02BFD07F16403184600
:103C400002F026FD2346184607F50377BD46BDE87A
:103C5000F08F00BF20F300005807FF1F80B582B02F
:103C600000AF786039600F497868FCF762FC034662
:103C7000002B08D00C497868FCF75BFC0346002B4E
:103C800001D0012300E00023002B01D0002305E038
:103C9000FEF722FBFEF712FD034600BF1846083769
:103CA000BD4680BDACF40000B4F4000080B582B025
:103CB00000AF7860396017497868FCF719FC034653
:103CC000002B06D114497868FCF712FC0346002B40
:103CD00001D0012300E00023002B03D00F4B012271
:103CE0001A7011E00E497868FCF702FC0346002BBD
:103CF00014BF01230023DBB2002B03D0074B0022AB
:103D00001A7001E0002300E0012318460837BD4681
:103D100080BD00BFB8F4000040F300003007FF1F73
:103D2000C0F4000090B597B000AF6448FCF7B6FC53
:103D30000346B3F1FF3F0CBF01230023DBB2002B8E
:103D400001D00024B4E007F1300078230A225B4957
:103D500001F0B4FB07F13003184602F02AFF0346D6
:103D6000184602F049FF024607F1200311461846A3
:103D700002F07DFC07F13003184602F089FC50493F
:103D80004E48FCF71DFC07F140034E49184602F06F
:103D900055FC07F1400207F120031146184602F0D6
:103DA0007FFE786507F14003184602F071FC07F1C9
:103DB00020031846FCF790FB0346002B06D107F1C1
:103DC00010034149184602F039FC12E07B6DB3F153
:103DD000FF3F06D107F120031846FCF77DFB0346A1
:103DE00000E07B6D07F1100007F12001002202F0D6
:103DF0009EFE7B6DB3F1FF3F05D13B46324918462D
:103E000002F01CFC08E07B6D01331A463B4607F1CB
:103E10002001184602F07AFE3A4607F110031146D7
:103E20001846FFF71BFF0346002B25D13A4607F142
:103E3000100311461846FFF785FB0346002B1BD1E4
:103E40003A4607F1100311461846FEF72DFE0346C9
:103E5000002B11D13A4607F1100311461846FFF71F
:103E600025FF0346002B07D107F110031846FEF784
:103E70003BFC0346002B01D0012300E0002387F820
:103E800053300E48FCF71FFC0D490C48FCF798FB1B
:103E900097F853403B46184602F0FAFB07F110032F
:103EA000184602F0F5FB07F12003184602F0F0FB7C
:103EB000234618465C37BD4690BD00BF8C07FF1FE8
:103EC000ACEF0000A4F40000A8F4000080B584B0BA
:103ED00000AF00F069F8FCF7E3FE00F0A7F900BFBF
:103EE0002748FCF7FBFB034683F00103DBB2002B02
:103EF000F6D1FEF7E7F9234BBB60224BFB60224B68
:103F00007B600AE0FB681B78FB70FB7819461C4855
:103F1000FCF744FBFB680133FB60FA687B689A425C
:103F2000F0D1FEF7D9F9194B1B681946184807F06C
:103F3000FFFB02F041FF012205211648FCF7A4FC1B
:103F4000154B1B78002B06D0144B1B781A46144BCC
:103F500053F822309847002205210E48FCF794FCC4
:103F6000104B1B684FF47A7202FB03F3074A126886
:103F70001146184607F0DCFBFFF7D4FED9E700BF77
:103F80008C07FF1F00E8000024EC00006807FF1FFB
:103F9000808D5B0080F00F403007FF1FC80AFF1FB5
:103FA0007007FF1F3407FF1F80B584B004AF364988
:103FB0003648FCF768FB4FF47A71344801F070FA28
:103FC000FCF754FFFCF722FEFCF79AFFFCF7C8FF52
:103FD000FCF7D8FFFDF712F8FDF74CF82C4806F077
:103FE0007DF82C4806F07AF82B4806F077F82B4835
:103FF00006F074F82A4806F075FA2A4B1B681A4630
:104000000021274806F0CAFA274B1B681A460121EF
:10401000234806F0C3FA254806F064FA244B1B68CF
:104020001A460021214806F0B9FA224806F0FAFBA8
:10403000204806F0C7FD204B1B68184609F08AFC93
:1040400002460B4643EC102B00211A4806F048FCB0
:104050009FED1A0A0021174806F0CEFC00230293B8
:104060000023019300230093022300220021114822
:1040700006F036FD0021124805F00EFF1148FCF74E
:104080001BFD00BFBD4680BD20A107008C07FF1FA0
:104090008C09FF1FEC09FF1FCC08FF1F2C09FF1F15
:1040A000740AFF1F4007FF1F4407FF1F4C0AFF1F32
:1040B0004807FF1F9C0AFF1FD00AFF1F00000000D7
:1040C00000C00C4000600340684620F007018D46A8
:1040D00089B500AF05F06CFC00BFBD46BDE8894066
:1040E0008546704780B584B000AFF860B9603B602A
:1040F0001346FB7100210748FCF71DFC0422002138
:10410000054805F0A3F8054B00221A7000BF1037D0
:10411000BD4680BD00B00340008000406C07FF1F1B
:10412000684620F007018D4689B500AF0C4A002192
:104130000C4804F02BFD0C4805F00EFF0346194611
:10414000094805F01AFF0421074805F0E9FEBFF30E
:104150004F8F00BF00BFBD46BDE889408546704710
:1041600030F5000000B0034000C00C40684620F06D
:1041700007018D4689B500AF4FF400310448FCF7C4
:10418000A0FB00BFBD46BDE889408546704700BF23
:1041900040F00F4080B586B004AF78600B46FB70EE
:1041A0001C4B01221A701C4B03F11001FB789B0081
:1041B00001220392029304230193042300937B685A
:1041C0000422164805F06EFA0023144A0021144810
:1041D00004F0B0FE134805F0C3FA01210E48FCF7C5
:1041E000AAFB114805F0B8FE034619460E4805F033
:1041F000C4FE04210C4805F079FE00E000BF054B29
:104200001B78DBB2002BF9D100BF00BF0837BD46D9
:1042100080BD00BF6C07FF1F00B00340DC12FF1F12
:1042200000800040C412FF1F00C00C4080B500AFEA
:10423000184806F057F9184B1B681A460021154814
:1042400006F0ACF9154B1B681A460121114806F01F
:10425000A5F9134806F046F9124B1B681A460021CF
:104260000F4806F09BF9104806F0DCFA0F4B1B686C
:10427000184609F06FFB02460B4643EC102B002159
:10428000094806F02DFBFCF7F5FEFCF7B7FE00BF72
:1042900080BD00BF740AFF1F4007FF1F4407FF1FB8
:1042A0004C0AFF1F4807FF1F9C0AFF1FD00AFF1F71
:1042B000B0B582B000AF87ED010A3860786809F0C8
:1042C00049FB04460D46386809F032FB02460B46AE
:1042D00043EC112B45EC104B07F0F6FBB0EE407AA7
:1042E000F0EE607AB0EE470AF0EE670A0837BD4696
:1042F000B0BD80B485B000AFF860B9607A60FA688C
:10430000BB689A4207D3FA687B689A4201D97B68F6
:1043100002E0FB6800E0BB6818461437BD465DF854
:10432000047B704780B584B000AFF860B9607A60F4
:104330003B607968B868FCF7E9F80346002B14BFC6
:1043400001230023DBB2002B01D0002310E0FDF796
:10435000B9FFF868FDF72CFF0748FDF71BFF3B6826
:104360001B781846FDF766FF0448FDF713FF01238D
:1043700018461037BD4680BDECF00000ACEF0000E1
:1043800080B584B000AFF860B9607A603B6079684E
:10439000B868FCF7BBF80346002B14BF01230023C9
:1043A000DBB2002B01D0002310E0FDF78BFFF86893
:1043B000FDF7FEFE0748FDF7EDFE3B681B7818464B
:1043C000FDF75CFF0448FDF7E5FE012318461037B2
:1043D000BD4680BDECF00000ACEF000080B584B0BD
:1043E00000AFF860B9607A603B607968B868FCF744
:1043F0008DF80346002B14BF01230023DBB2002BF2
:1044000001D0002321E03868FCF7A6F803461846DF
:1044100009F096FF0346052200211846FFF769FFC1
:104420000346DAB2BB691A70FDF74CFFF868FDF776
:10443000BFFE0848FDF7AEFEBB691B781846FDF7C6
:10444000F9FE0548FDF7A6FE012318461037BD46C4
:1044500080BD00BFECF00000ACEF000080B584B080
:1044600000AFF860B9607A603B607968B868FCF7C3
:104470004DF80346002B14BF01230023DBB2002BB1
:1044800001D0002321E03868FCF766F8034618469F
:1044900009F056FF0346012200211846FFF729FFC5
:1044A0000346DAB2BB691A70FDF70CFFF868FDF736
:1044B0007FFE0848FDF76EFEBB691B781846FDF7C6
:1044C000DDFE0548FDF766FE012318461037BD46A0
:1044D00080BD00BFECF00000ACEF000080B598B0EC
:1044E00016AF786039607B68012B40F0A1813B6892
:1044F0004FF6FF72934240F09B8110231493964B2A
:104500001393964B129301231193954B1093954B54
:104510000F9301230E93924B0D93924B0C93102308
:104520000B93914B0A93914B09930F2308938E4B56
:1045300007938E4B06930E2305938B4B04938B4B63
:10454000039305230293884B0193884B00931A230E
:10455000874A8849884805F06BFD102314937E4BE9
:1045600013937E4B129305231193844B1093844B2A
:104570000F9305230E93814B0D93814B0C931023C6
:104580000B93794B0A93794B09930F230893764B3E
:104590000793764B06930E230593734B0493734B4B
:1045A000039305230293704B0193704B00931A23DE
:1045B0006F4A7049734805F03BFD182314936C4B08
:1045C00013936C4B1293022311936C4B10936C4B0F
:1045D0000F9302230E93694B0D93694B0C93102399
:1045E0000B93614B0A93614B09930F2308935E4B26
:1045F00007935E4B06930E2305935B4B04935B4B33
:10460000039305230293584B0193584B00931A23AD
:10461000574A58495C4805F00BFD18231493544B36
:104620001393544B129303231193544B1093544BF5
:104630000F9303230E93514B0D93514B0C93102367
:104640000B93494B0A93494B09930F230893464B0D
:104650000793464B06930E230593434B0493434B1A
:10466000039305230293404B0193404B00931A237D
:104670003F4A4049454805F0DBFC4CF25033099372
:104680000223089300230793364B069302230593D6
:10469000012304933A4B03930223029306230193CD
:1046A000304B00931023002239493A4805F0DBFED5
:1046B0004CF2503309930223089306230793304B9F
:1046C000069302230593012304932D4B03930223A6
:1046D000029306230193234B0093082300222C49C5
:1046E0002D4805F0C0FE2D4B0993022308930423A7
:1046F00007931C4B06930223059301230493204B3D
:1047000003930223029306230193164B0093012384
:1047100001221F49224806F00EF8224B1A68224B4C
:104720001B68B2FBF3F3214A1360214BD3ED006AFF
:104730001D4B1B6807EE903AB8EE677AC6EE877A93
:104740001C4BC3ED007A1B4BD3ED007AF7EE006AE9
:1047500086EEA77A32E000BF40F00F4000A0044090
:1047600080F00F4000B0044000F00F400090044083
:1047700000F10F4000D00440CC08FF1FC0F00F40F4
:1047800000C004402C09FF1F8C09FF1FEC09FF1F0C
:1047900000C002404C0AFF1F740AFF1F40787D01D1
:1047A0009C0AFF1F6007FF1F5007FF1FCC0AFF1F57
:1047B0006407FF1FD00AFF1F002474495FED026ADF
:1047C000C7EE267A1C4BC3ED007A1C4B1B681C4AB3
:1047D000126802FB03F31B4A13601A4B1A681A4B48
:1047E0001B681344194A1360194B1B78012B01D124
:1047F0001E2200E01022174B1A80174B1A68174B25
:104800001B68B2FBF3F39AB2154B1A80144B1A884B
:10481000104B1B88B2FBF3F39AB2124B1A80114B68
:104820001A880C4B1B8812FB03F39AB20E4B1A80AA
:1048300000BF0837BD4680BDD40AFF1F5007FF1FC9
:104840004C07FF1FD80AFF1F5407FF1FDC0AFF1F7A
:104850003107FF1FE00AFF1F5C07FF1FCC0AFF1F85
:10486000E20AFF1FE40AFF1FE60AFF1F80B500AF40
:104870004FF6FF710120FFF731FE80BD80B500AF1C
:10488000104B1B6803F48023002B01D001F06EFA5B
:104890000C4B1B6803F48063002B01D000F014F86C
:1048A000084B1B6803F40063002B01D000F00CF8E8
:1048B000044B1B6803F48053002BE1D000F004F894
:1048C000DEE700BF3480044080B500AFFFF7D6FFBD
:1048D00000BF80BD80B400AF034B10221A8000BF20
:1048E000BD465DF8047B70470020054080B400AFF2
:1048F00000BFBD465DF8047B7047FFFF604B4CF284
:10490000205210B5DA814DF62812DA8100BF00BFBF
:10491000FFF7E0FF5B4B4FF030621A635A4A9A632D
:104920005A4ADA634FF0E0234FF47002C3F8882D3F
:1049300003F5E823564A1A60564B9A78110703D5B7
:104940009A7842F008029A70534B5448AA221A707F
:10495000534BDA1C121AC11E22F00302994288BF7F
:104960000022504909F02AFD4F4B5048DA1C121A18
:10497000C11E22F00302994288BF0022002109F0E3
:104980002BFD4B494B484FF4E87209F017FD4A4B99
:104990004A4A802103F8011B9342FBD14FF0E023E8
:1049A000444AC3F8082D464B8A221A70A3F5805357
:1049B00024225A70A0221A709A799207FCD59A790B
:1049C000D406FCD43F4A937903F00C03082BFAD1A8
:1049D000314B60225A70DA78802AFCD1394B01229F
:1049E0001A715D225A719A799006FCD59A7951060E
:1049F000FCD5244A4FF08371516400219164202139
:104A0000197030498B7903F00C030C2BFAD12E4B23
:104A100053602E4A136913F4807303D153614FF42A
:104A2000A85313614FF0E023294A5A6100229A618A
:104A300007221A61274AC3F8202D62B600F04AF90E
:104A4000224B5B69DA0705D5234800F027F9234B91
:104A5000234ADA61234B1B785B0609D51F4C204B98
:104A6000E2699A4204D11C4800F018F90023E3617E
:104A700009F070FCFFF73AFFFFF728FAFEE700BFE6
:104A80000020054000800440823F04000100002B0C
:104A90000300008500D0074000E007403007FF1FFB
:104AA000B408FF1F180D0100D014FF1FB408FF1F2A
:104AB000000000000002FF1F00E400E064E400E0EA
:104AC0000050064000400640C010070000D00340E0
:104AD0001FBF0200000020200000000000E0034093
:104AE000A5C3945A00F0074080B584B000AF786049
:104AF000104B1B68FB607B68002B16D06B46BB60BD
:104B00007B68FA681A44BB68A3F500539A4207D33E
:104B100009F01AFC03460C221A604FF0FF3305E03F
:104B20007B68FA681344034A1360FB681846103721
:104B3000BD4680BD8807FF1F80B400AF0C4B1B78BB
:104B4000DBB2802B0DD10B4B0B4A1A600B4B0022B2
:104B50001A7000BF064B1B78DBB2802BFAD0012302
:104B600000E000231846BD465DF8047B704700BF97
:104B700003E00740448004400000171101E00740B3
:104B800080B400AF0C4B1B78DBB2012B0ED10B4B6A
:104B900060221A7000BF084B1B78DBB2802BFAD161
:104BA000074B4FF083721A60012300E00023184680
:104BB000BD465DF8047B704703E0074001E0074015
:104BC0004480044080B483B000AFEFF310837B6077
:104BD00072B67B68002B0CBF01230023DBB21846A2
:104BE0000C37BD465DF8047B704780B483B000AFDE
:104BF0000346FB71FB79002B00D062B600BF0C3777
:104C0000BD465DF8047B704780B500AF00F002F848
:104C100000BF80BD80B582B000AFFFF7D3FF034671
:104C2000FB71154B1B683B603B68002B1BD03B683E
:104C30005B69114A1360104B1B68002B04D00E4BAC
:104C40001B6800229A6102E00C4B00221A60FB797B
:104C50001846FFF7CAFF3B6800225A773B689B68FB
:104C600038689847D9E7FB791846FFF7BEFF00BFC1
:104C700000BF0837BD4680BDFC12FF1F0013FF1F99
:104C800080B400AF044B1B680133034A136000BFBC
:104C9000BD465DF8047B70470813FF1F80B483B0E6
:104CA00000AF7860084B00221A60084B00221A609F
:104CB000074A7B681360044B10221A6000BF0C3750
:104CC000BD465DF8047B704714D0034004D0034018
:104CD00000D0034080B500AF534B4FF000621A6024
:104CE000514B4FF080521A604F4B4FF000521A60F8
:104CF0004D4B4FF080421A604B4B4FF000421A6010
:104D00004A4B00221A604A4B4BF2FF321A60494B61
:104D100028221A60484B28221A60484B28221A6021
:104D2000474B28221A60474B28221A60464B2822FC
:104D30001A60464B28221A60454B28221A60454BC0
:104D400028221A60444B28221A60444B28221A60F9
:104D5000434B28221A60434B28221A60424B2822D8
:104D60001A60424B28221A60414B28221A60414B9C
:104D70000A221A60404B00221A60404B4BF2FF326D
:104D80001A603F4B28221A603E4B28221A603E4B85
:104D90000A221A603D4B00221A603D4B4BF2FF3253
:104DA0001A603C4B28221A603B4B28221A603B4B6E
:104DB0000A221A603A4B00221A603A4B4BF2FF3239
:104DC0001A60244B28221A60234B28221A60364B83
:104DD0000A221A60354B1B68344A43F4007313608F
:104DE000334B1B68324A43F000731360314B00228F
:104DF0001A60314B47F6FF721A60304B28221A6056
:104E00002F4B28221A602F4B08221A6002F020F83C
:104E1000192000F093F801F0D3F840F2131000F0DD
:104E20008DF800BF80BD00BF04E100E004800340B6
:104E3000088003400C800340148003401C80034022
:104E4000248003402C800340348003403C80034096
:104E5000448003400C900B4014900B401C900B407E
:104E600024900B402C900B4034900B403C900B4016
:104E700044900B400080034004900340089003409E
:104E80000C900340149003400090034004800B40BA
:104E900008800B400C800B4014800B4000800B40BE
:104EA00004900B4008900B4000900B402C80044075
:104EB0000480044004900C4008900C400C900C407E
:104EC00014900C4000900C4080B485B000AF72B6D6
:104ED000164B1B68BB60164B1B68FB60154B1B68B1
:104EE0007B6062B67B6803F08063002B05D0BB68F3
:104EF000322B02D9FB680133FB60BB68C3F52F334B
:104F000003F21F33BB60FB684FF47A7203FB02F2BB
:104F1000BB689B080849A1FB03139B081344184670
:104F20001437BD465DF8047B704700BF18E000E011
:104F30000813FF1F04ED00E0176CC11680B584B0A4
:104F400000AF7860FFF7C0FFF8607B68002B16D0D9
:104F500009E07B68013B7B607B68002B0ED0FB681F
:104F600003F57A73FB60FFF7AFFF0246FB68D31AC5
:104F7000B3F57A7FEDD201F01FFFF4E700BF1037E1
:104F8000BD4680BDF0B583B000AF87ED000B3C6837
:104F90007B6823F0004501231E464FF0FF32104B83
:104FA0002046294608F0C8FF0346002B0BD14FF0DE
:104FB000FF320B4B2046294608F0A0FF0346002B8A
:104FC00001D100231E46F3B283F00103DBB2002BB4
:104FD00014BF01230023DBB218460C37BD46F0BDD9
:104FE000FFFFEF7F90B583B000AF87ED000B01238B
:104FF0001C46D7E90023D7E9000108F09DFF0346CE
:10500000002B01D100231C46E3B2002B14BF012367
:105010000023DBB218460C37BD4690BD80B590B07A
:1050200000AF786039600023FB630023BB633868FE
:10503000FBF752FA786322E007F10C01BB6B2122E7
:10504000386801F0F5FC7B6B3B633B6B202B01D98F
:1050500020233B63BA6B3B6B1344BB637A6B3B6BA4
:10506000D31A7B637B681B6804331B6807F10C0150
:105070003A6B786898470246FB6B1344FB637B6B83
:10508000002BD9D1FB6B18464037BD4680BD80B59B
:1050900084B000AF786039600023FB733B68002B5D
:1050A00004DA2D23FB733B685B423B603968FB7B72
:1050B0000A22786800F01AF8034618461037BD46F1
:1050C00080BD80B584B000AF786040F60D23BB8111
:1050D0007B681B6804331B6807F10C0102227868A7
:1050E0009847034618461037BD4680BD80B58EB040
:1050F00000AFF860B96011461A460B46FB711346C3
:10510000BB71FB79002B09D1FB681B681B68BA686F
:10511000D2B21146F868984703465CE0FB79012B50
:1051200001D10A23FB71BB68002B06D1302387F81D
:105130003530212387F837302DE0212387F83730A9
:10514000FA79BB68B3FBF2F101FB02F29B1A87F814
:10515000363097F83630092B04D897F8363030338C
:10516000DBB203E097F836303733DBB297F83720FD
:1051700038323A4402F8243CFB79BA68B2FBF3F3C4
:10518000BB60BB68002B05D097F83730013B87F830
:105190003730D5E700BFBB79002B0BD097F83730FD
:1051A000013B87F8373097F8373038333B442D22AE
:1051B00003F8242CFB681B6804331B6897F837201E
:1051C00007F11401114497F83720C2F12202F86860
:1051D0009847034600BF18463837BD4680BDFFFFDD
:1051E000B0B594B000AFF86087ED000B0B46FB72D2
:1051F000002387F84F300023BB6297ED000BFFF7C9
:10520000F1FE0346002B05D07749F868FBF7D8F983
:105210000346DEE097ED000BFFF7B4FE0346002BDC
:1052200005D07249F868FBF7CBF90346D1E04FF09F
:1052300060426F4BD7E9000108F074FE0346002B73
:1052400005D06C49F868FBF7BBF90346C1E04FF0A5
:105250006042694BD7E9000108F046FE0346002B87
:1052600005D06449F868FBF7ABF90346B1E04FF0AD
:1052700000024FF00003D7E9000108F035FE0346B5
:10528000002B08D0012387F84F303C687B6883F0FF
:105290000045C7E900454FF00002584BC7E910230D
:1052A000002387F83F300FE04DA3D3E90023D7E96F
:1052B000100108F0A7FB02460B46C7E9102397F838
:1052C0003F30013387F83F3097F83F20FB7A9A420E
:1052D000EAD3D7E91023D7E9000108F0DDF9024647
:1052E0000B46C7E90023D7E9000108F03BFE03465F
:1052F0007B62786A08F00CFB02460B46D7E9000196
:1053000008F0C8F902460B46C7E90C2397F84F305E
:105310000A22796AF868FFF7E9FE0246BB6A13447D
:10532000BB62FB7A002B53D0012387F82F302E234A
:105330003B74FB7A0F2B30D90F23FB722DE04FF01B
:1053400000022F4BD7E90C0108F05CFB02460B462C
:10535000C7E90C23D7E90C0108F004FE034687F8DF
:10536000233097F823303033DAB297F82F30591CB6
:1053700087F82F1050333B4403F8402C97F8233024
:10538000184608F0D5FA02460B46D7E90C0108F09A
:1053900081F902460B46C7E90C23FB7A5A1EFA72C2
:1053A000002B14BF01230023DBB2002BC7D1FB6805
:1053B0001B6804331B6897F82F2007F11001F86869
:1053C00098470346DAB297F82F30134487F82F3006
:1053D000BB6A18465037BD46B0BD00BFAFF3008072
:1053E000000000A09999B93F38F500003CF5000095
:1053F000FFFFEF4140F50000FFFFEFC10000E03F7D
:105400000000244080B582B000AF78600B46FB708E
:10541000FB781946786801F076FA03461846083793
:10542000BD4680BD80B483B000AF786039603B6812
:10543000DAB27B681A7300BF0C37BD465DF8047B97
:105440007047FFFF80B586B000AF7860134B1B68D4
:10545000BB60BB687B617B681B6814331B68786822
:10546000984738613B69002B01DB3B6912E001F092
:10547000A3FC0A4B1B68FB60FA687B69D21A7B6845
:105480009B689A4234BF01230023DBB2002BE2D198
:105490004FF0FF3318461837BD4680BD0813FF1F75
:1054A00080B483B000AF786039607B683A689A60F6
:1054B00000BF0C37BD465DF8047B704780B586B0F1
:1054C00000AFF860B9603B601346FB710021F868DB
:1054D00001F0B4F800237B611CE0B868FFF7B2FF6D
:1054E00038613B69002B05DA0121B868FFF79AFFA4
:1054F00000BF13E03B69002B10D0FB793A699A4258
:105500000CD03B69DBB21946F868FFF77BFF7B697B
:1055100001337B617A693B689A42DED300BFF86849
:105520001837BD4680BDFFFF024B0F2283F8C02015
:10553000704700BF002007400C4A137843F0020C6C
:1055400083F0010313700A4A1378002B83F00103E0
:105550001370084A02EBCC03586014BFC823882399
:1055600043EA014142F83C10704700BFE613FF1FB9
:10557000E713FF1F0000FF1F2DE9F04FA14A13881A
:1055800040F281618B4283B01CD8B3F5D06F80F0BC
:105590003081B3F5817F00F08E8131D940F2023144
:1055A0008B4223D1938803F07F03042B43D8528886
:1055B000002A40D1944911F8232042F0020201F858
:1055C000232016E042F221018B4200F0C88037D937
:1055D00042F221218B422AD1938853B98B488C49BE
:1055E0008C4B0068927808601A7002E0B3F5A06FE7
:1055F00021D10021084603B0BDE8F04FFFF79CBF62
:10560000802B00F05381822B15D1938803F07F0308
:10561000042B10D880497C4800240C8010F82330DB
:105620009B0740F15A8101230B700223DBE042F219
:1056300021329342DDD003B0BDE8F04FFFF774BFD5
:10564000B3F5086F00F0CA80B3F5106FF3D1734C57
:105650007349236A92780A701A0600F14081A36A9E
:105660001B0600F14581236B1F0600F1A881A36B87
:105670001E0600F19F81236C1D0600F19681A36C2C
:10568000180600F18D81236D190600F1B881A36D14
:105690001A0600F1AF81236E1B0600F1A681A36EEE
:1056A0001F0600F19D81236F1E0600F1B281A36FDA
:1056B0001D0600F1A981D4F88030180600F16A8136
:1056C000D4F88830190600F15F81D4F890301A06BA
:1056D00000F18081D4F898301B0600F17581514BA0
:1056E000514EDFF86481DFF86491DFF864A1DFF8E0
:1056F00064B10193002556F8047B2FB138467F68CA
:1057000000F02CFD002FF9D1D8F800704BF8045BA5
:1057100046F8045C2FB138467F6800F01FFD002F6B
:10572000F9D1019B48F8045B1B7849F8045B023B04
:105730002AF8025B032B19D8DFE803F04D144D144F
:10574000402D2C4628BF40242146FFF7F5FE20447B
:105750002C1B00F0C980354A354B10601C8003B00B
:10576000BDE8F08F019B4FF001021A70019B0133DD
:105770000193304B9E42BED12F4D304E2B78304A94
:1057800000211F07317082F8C43000F1EC806B7883
:105790002B490022180781F8C8302263A26300F168
:1057A000D080AB782649002281F8CC3019072265D9
:1057B000A26500F1B580EB78214900222267A2673B
:1057C0001A0781F8D03000F198800023C4F8903097
:1057D000C4F898300DE7019B1D70C7E710490E4BC8
:1057E000097819700123D1880B48994228BF1946BE
:1057F00001E7144B586800283FF41DAF5488958882
:105800002FE000BF5813FF1FC02007400813FF1FE1
:10581000FC13FF1F0014FF1FEC13FF1F0000FF1FEE
:10582000E913FF1F5413FF1F0C13FF1FE013FF1F8B
:10583000E413FF1F1C13FF1FC0F50000E813FF1F38
:10584000002007406CF500002C13FF1F3C13FF1FC6
:105850004C13FF1F1C13FF1F18690C3300283FF463
:10586000EAAE1988A142F7D15988A942F4D1240A95
:10587000032C08BF0378D48818BF1B899C4228BF1B
:105880001C46402C254628BF40252946FFF754FEDC
:105890002844651B7FF454AF3F2C88BF29467FF610
:1058A0005EAF03B0BDE8F04FFFF746BE704B00217E
:1058B0001980022397E7938803F07F03042B3FF6B8
:1058C000BAAE5288002A7FF4B6AE6A4911F8232096
:1058D00022F0020201F823208BE6022383E7606AAC
:1058E000083800F03BFCBAE63F2D3FF634AF36E710
:1058F000E06A083800F032FCB5E600F0F7FB00285B
:1059000000F0B0805C4B0830C4E9203000F0EEFBC2
:10591000002800F0A180594B0830C4E9223054E738
:1059200000F0E4FB00287ED0534B0830C4E9183067
:1059300000F0DCFB002871D0504B0830C4E91A306D
:1059400039E700F0D3FB002800F081804A4B083093
:10595000C4E9103000F0CAFB002873D0474B083070
:10596000C4E912301DE700F0C1FB002865D0424BAE
:105970000830C4E9083000F0B9FB002858D03F4B8C
:105980000830C4E90A3002E7D4F88C00083800F087
:10599000E5FB9AE6D4F88400083800F0DFFB8FE6D8
:1059A000E06C083800F0DAFB6DE6606C083800F057
:1059B000D5FB64E6E06B083800F0D0FB5BE6606B7B
:1059C000083800F0CBFB52E6D4F89C00083800F011
:1059D000C5FB84E6D4F89400083800F0BFFB79E6F4
:1059E000E06E083800F0BAFB5DE6606E083800F043
:1059F000B5FB54E6E06D083800F0B0FB4BE6606D97
:105A0000083800F0ABFB42E6E06F083800F0A6FB78
:105A100051E6606F083800F0A1FB48E63378A066D5
:105A200001333370C7E633782066013333707FE784
:105A30003378A06201333370A9E6337820620133F2
:105A4000337098E73378A06401333370A9E6337874
:105A50002064013333707DE73378C4F88800013364
:105A60003370B2E63378C4F88000013333704DE709
:105A7000EC13FF1FC020074088004000C800400012
:105A8000F8B53F4D840805EBC40255F83430526830
:105A9000C3F38303092B2DD010D8013B012B08D869
:105AA000384B188842F22101884245D0364B45F8E0
:105AB0003430364B012283F89420F8BD0D2BF8D1F9
:105AC000D2E900302F4A324913602F4B45F8343069
:105AD000506000232F4A2B610124AB610B601470CE
:105AE000FFF74AFD294B83F89440284B012283F8A5
:105AF0009420F8BD264C206890B1274D2F88402F68
:105B00003E4628BF40263146FFF716FD2B889B1BDB
:105B10009BB230442B8013B93F2F98BF00202060E8
:105B2000184B1A88B2F5A06FC3D1184A9978002093
:105B3000587082F89810BCE79B8893B9174B511C9A
:105B4000591A022912D911681960117919715179FC
:105B5000927959719A711B68862B02D1104B0F22D2
:105B60001A7000210846FFF7E7FC9FE711781970CB
:105B70005178597091789970D178D970E5E700BF64
:105B80000000FF1F5813FF1FC800400000200740FF
:105B9000E013FF1FE713FF1FE413FF1FF413FF1FA2
:105BA000EA13FF1F431E032B16D872B60B4951F898
:105BB000230078B130B40A4CB0F800C034F8132098
:105BC000456841F82350A2EB0C0224F8132062B67A
:105BD00030BC704762B67047002070470C13FF1F3F
:105BE0004C13FF1F013803280BD872B6074B53F82C
:105BF000203043B100205B680130002BFBD162B63E
:105C00007047002070471846F9E700BF2C13FF1FAC
:105C100072B62E4A1378190705D52D4B196A00293B
:105C200038D0996A39B353781B0706D5284B196CBD
:105C3000002944D0996C00293BD09378190706D5E8
:105C4000234B196E00293DD0996E002934D0D378AA
:105C50001B070AD51E4BD3F880204FF0100CDAB189
:105C6000D3F888204FF0110C3AB162B6194B0022DC
:105C70001A7000F073BA4FF0050C164903EBCC0212
:105C8000083050600A78144843F83C00013A0A7022
:105C900062B670474FF0040C0E4903EBCC0208309B
:105CA00050600A780D4843F83C00013A0A7062B629
:105CB00070474FF0090CE0E74FF00D0CDDE74FF0B7
:105CC000080CE9E74FF00C0CE6E700BFC0F5000058
:105CD0000000FF1FE813FF1FC800400088004000BD
:105CE000421E032A0ED810B443011B4C43F010038C
:105CF000234472B6194CA05C03281DD8DFE800F0DD
:105D00001416031970470520A05413F0080F0888D3
:105D100014BFC8228822083142EA0042C3E90021A8
:105D200062B65DF8044B70470320EDE708330220AC
:105D3000EAE708330420E7E7094B53F8220038B1BB
:105D4000084B53F82200416043F8221062B6E8E79E
:105D500043F82210034BF7E70000FF1F5413FF1F07
:105D60002C13FF1F3C13FF1F00BE00BF2DE9F0479F
